:020000040800F2
:10000000F80B0020D5000008E10C0008E10A000808
:1000100000000000000000000000000000000000E0
:10002000000000000000000000000000E90F0008D0
:100030000000000000000000E30C00087D10000834
:100040000501000805010008050100080501000878
:100050000501000805010008050100080501000868
:100060000000000005010008050100080501000866
:100070000501000805010008050100080000000056
:100080000501000805010008000000000501000846
:100090000501000805010008050100080501000828
:1000A0000501000805010008050100080501000818
:1000B0000501000800000000000000000501000824
:1000C0000348854600F002FC00480047A91F0008CD
:1000D000F80B00200C4880F308880C480168090ED2
:1000E0000B4A914205D10B480B4901600B480C4962
:1000F00001600C4880470C480047FEE7FEE7FEE73A
:10010000FEE7FEE7FEE70000F80B00200400000019
:100110001F00000018100240010000000000014014
:1001200000000000F9100008C100000830B50B46BF
:10013000014600202022012409E00D46D5409D42C1
:1001400005D31D469540491B254695404019154647
:10015000521E002DF1DC30BD70B50024254600286C
:1001600001DA01244042002901DA01254942FFF762
:10017000DDFFAC4200D04042002C00D0494270BDAF
:1001800003460B439B0703D009E008C9121F08C0B0
:10019000042AFAD203E00B780370401C491C521E5B
:1001A000F9D27047D2B201E00270401C491EFBD266
:1001B00070470022F6E710B513460A460446194672
:1001C000FFF7F0FF204610BDF8B502464A40D40FB5
:1001D00042004B0052085B089A4202D2024608468F
:1001E00011464A0023D0C30D4A00DDB2120EAD1AEB
:1001F000202D35DA49020126490AF6058A19002C14
:1002000000D0524220214F1B1146B9402A411018FC
:10021000C20D9A4221D0002C17D0012D08DCDA053E
:10022000801AD20F8019D207DBB200F0A2F9F8BD14
:10023000DA05801A012340001B06C01880185A42B4
:100240008018CA0F1043490007E04908C20711434C
:10025000DA05801A80194008801800F082F9F8BD8C
:1002600061000122511A001BF7E70122D207514019
:10027000AAE70122D2075040A6E770B502464A40DD
:10028000D50F40004A00ED0740085208002814D05E
:10029000002A12D0C40DD30D41020120C005520224
:1002A000490A520AE41A091812187D34914201D3FE
:1002B000641C00E04900002C01DA002070BD00231E
:1002C000914201D3891A0343400849000028F7D11D
:1002D00000290AD0914202D10121C90705E09142CB
:1002E00001D2012101E00121C943E005C0184019F4
:1002F00000F037F970BD0000F0B5074608465840D9
:1003000087B0C00F049048000E46590040084908C5
:10031000BC1A884105D2384631461E4617460B4660
:1003200002465800400810434CD0300D0390400561
:100330005900400D490D0590401A0290402872DA8C
:1003400018030121000B090508430190049800924D
:10035000002805D001995242002088410092019066
:10036000029840210A1A0199009800F0C6F8054643
:100370000C466B4607CB00F0E1F8C0197141039AB7
:100380000E0D0023D71756401A467A40164344D024
:10039000049A002A2DD0029A012A039A15DC12052C
:1003A000C01A914101263605001C7141D20F059EED
:1003B000D2070093019202962A46234600F01FF9C5
:1003C00007B0F0BD38463146FAE71605224A0F4617
:1003D000B218C01AB74101210905001C4F4100188D
:1003E0007F41114618187941E20F10436D1964419D
:1003F00013E0E2076D0815436408C2071443039A2B
:1004000001261205C01A91413605001C7141CE0724
:10041000400830434908C01851412A46234600F09D
:10042000E1F8CDE7FFE7049801224000C117121A56
:1004300000238B4104983146C417381AA141EEE7D6
:1004400030B40124E407634030BC55E730B40124E4
:10045000E407614030BC4FE70000E0FFC217C10F66
:10046000504010B54018CA079623002100F081F8CB
:1004700010BDC20FD207400040080BD0C10D0723AA
:10048000DB01C91840020905400A1143C2084007B0
:1004900011437047002001467047F0B51FB406466F
:1004A000002082B005464024019100901BE0019994
:1004B00022460F46304600F030F8049A059B801A19
:1004C000994110D310461946224600F016F8361A04
:1004D0008F410197224601200021009F00F00DF876
:1004E00038184D4100902046641E0028DFDC019B37
:1004F00000982946324607B0F0BD10B5202A04DB2B
:100500000146203A9140002010BD914020239C1AC2
:100510000346E3401943904010BD10B5202A04DB88
:100520000846203AD040002110BD0B46D340D040B1
:100530002024A21A91400843194610BD10B5202A64
:1005400006DBCB170846203A1041C1170B4306E0E3
:100550000B461341D0402024A21A9140084319466B
:1005600010BD002904DA401C490001D140084000B8
:10057000704770B40024050C05D11024000402D18A
:10058000002921D01124050E01D100020834050FE5
:1005900001D10001241D850F01D18000A41C002879
:1005A00001DB4000641C002908D020252E1B0D46CD
:1005B000F540A14000D001212943084301061B1B3F
:1005C000000ADB1D02D5002070BC7047DB0518183F
:1005D00080180029F8DA401C4900F5D170BC4008A9
:1005E0004000704710B5002B08DA0024401C614120
:1005F00092185B411A4301D14008400010BDF0B58C
:100600001FB482B005460C0003D0084600F046FF38
:1006100002E000F043FF20300246009021462846C9
:10062000FFF76BFF049B059A04460F4618431143DE
:10063000084314D0184610431BD0009840210A1AD2
:1006400018460599FFF769FF05460E46009A059979
:100650000498FFF752FF084305D0012004E020462C
:10066000394607B0F0BD0020C11705430E432C43A7
:10067000374300990E986305401A7905E40A002271
:100680000C43FD0A0A3002D500200146E9E70105C6
:10069000101969410C9C0D9D00196941FFF7A2FFDB
:1006A000DFE70000F0B51FB488B00B99099800246B
:1006B00048400999C00F490049080991C0070B99A2
:1006C0000090490049080B9109990898A6460843EB
:1006D0001CD00B990A98084318D0099801244000AF
:1006E000420D4800410D099824050003000B2043EA
:1006F00009900B980003000B20430B9050181C49E5
:100700004018002201901446104605E000200146E2
:100710000DB0F0BD032801DA034600E003239C4638
:10072000C11A0AAE0AE05F0008ADED5B4F00F75B4F
:100730007D430027AA187C41491C5B1E6145F2DD00
:10074000410004AB5A522104120C0A43240C401CF1
:100750000828DFDB01980290009970460191009013
:10076000059B049A07990698FFF749FFD0E7000018
:100770000DFCFFFFF0B50C465C4085B0E40FE407CC
:1007800003944C0000266408590094464908024628
:100790000296224321D062460A431ED06200570DC2
:1007A0004A000E032303550D012402462C4924055B
:1007B000781B1B0B360B40182343264361460090E1
:1007C0001C46501AB44103D30098401C009002E02C
:1007D000921800985B41002803DA0020014605B01A
:1007E000F0BD0020012109050746864611E0644658
:1007F0001D46141BB54106D36546521BB3417446D2
:1008000007430C43A646CD074008490828439218E1
:100810005B4105460D43EAD11046184313D06046AC
:10082000194650407140084306D06046101AB34143
:1008300006D20122002306E000220123DB0702E0AA
:100840000122D2435310009874460105381C6141BF
:10085000029C039D00196941FFF7C4FEBFE7000039
:10086000FD0300004A0009030123090B1B0519437E
:100870000A4B10B5520D9A4202DA0020014610BD13
:10088000064B34339A4203DC9A1AFFF746FE10BD3A
:10089000034BD218FFF731FE10BD0000FF0300002C
:1008A000CDFBFFFF10B5002904DB0124E407404223
:1008B0008C412146002B04DB1C460123DB075242FE
:1008C000A341994200D1904210BD0000064C012581
:1008D000064E05E0E36807CC2B430C3C98471034E8
:1008E000B442F7D3FFF7F0FB3867000858670008F9
:1008F000836A0B438362426170470029816801D09B
:10090000012200E0022211438160704782680021C9
:100910000123DB071A4382600F231B038268491CF3
:10092000D20FD207994201D0002AF7D1816800295D
:1009300001DB006C704700207047006C80B270478C
:1009400002460020CB0104D5926801231B069A437E
:1009500000E012680A4200D00120704730B5C2683A
:10096000084B8C681A400B680D792343CC686D03E3
:100970002C4323430C69496923430B431343C3604E
:1009800030BD000003D2FFFF816804221143816063
:1009900070470021016001718160C16001614161A6
:1009A0007047000001220549D2050028886801D05F
:1009B000104300E09043886070470000002701402A
:1009C0000122054992050028886801D0104300E003
:1009D000904388607047000000270140F0B5002276
:1009E000032501230C6893401C409C422AD10C79BA
:1009F000012C01D0022C12D1876854002E46A6404B
:100A0000B74387604E79A640846826438660848811
:100A10009C43848084888B7993401C43848006683F
:100A200053002C469C40A64306600E7907689E4002
:100A30003E430660C668A643C660CC799C40C36846
:100A40001C43C460521C102ACBD3F0BD4B07DB0EF5
:100A50009A40C90810B589000818016A0F249C4003
:100A6000A1430162016A1143016210BD0246928AEC
:100A700000200A4200D001207047002A01D0816185
:100A8000704701857047000070B51248124E008B08
:100A900004051048240D2030408805052D0D042143
:100AA0003046FFF74DFF0028F9D03046FFF745FFED
:100AB000001B55214843FFF7D1FC0646281BFFF7D2
:100AC000CDFC01463046FFF7D8FB0449FFF77CFB1D
:100AD00070BD0000A0F7FF1F002401400000C841C6
:100AE000FEE70122D2030029416801D0914300E0D2
:100AF000114341607047C16170470029016802D00D
:100B00000122114301E049084900016070470000DB
:100B1000084910B5884202D101214C0501E00121AC
:100B20008C05204600F0F6F80021204600F0F2F88F
:100B300010BD0000005400400246926900200A42A5
:100B400000D001207047000010B502685208520022
:100B500002600268134B8C681A4024024B681443ED
:100B6000234303600F230A681B069A43026102684D
:100B700001231A43026000228260C2600B698A6905
:100B80001A43826082680123DB031A438260CA68C9
:100B90000368134303604268034B49691A401143D9
:100BA000416010BDFFE0CF00FF7FFF0770B5049DDF
:100BB00044688905890D1204034E114319433440DA
:100BC00029432143416070BD009800FCF3B5204EDD
:100BD0000F4681B0642401213046FFF782FF711473
:100BE000009100233A4678213046FFF7DFFF641E6C
:100BF0002DD001213046FFF79FFF0028F7D0642455
:100C0000641E24D001213046FFF796FF0028F7D05C
:100C100000240DE00198005DB06264256D1E16D0C1
:100C200001213046FFF788FF0028F7D0641CE4B2AA
:100C3000BC42EFD36424641E09D020213046FFF764
:100C40007BFF0028F7D020213046FFF754FFFEBD80
:100C5000005400407CB5054604460C200C4E44432D
:100C60003059012100F03EF8A119088900900120B7
:100C70006B4618710020987103225A71D871486828
:100C80006946FFF7ABFE284600F004F87CBD000083
:100C9000086700080C214843054910B541188A7AB5
:100CA00048680989002A00D00122FFF7E6FE10BD3E
:100CB000086700080C21484310B5084944182189E9
:100CC0006068FFF7D3FE00282189606803D0002206
:100CD000FFF7D3FE10BD0122FAE700000867000805
:100CE00070477047044A0029516901D0014300E070
:100CF000814351617047000000100240044A0029FE
:100D0000D16901D0014300E08143D1617047000007
:100D100000100240044A0029116901D0014300E09B
:100D2000814311617047000000100240044A00290D
:100D3000916901D0014300E0814391617047000057
:100D40000010024004490A6B10239A430A630A6B9D
:100D500002430A637047000000100240F8B50446E1
:100D600013481D46007816460F46532801D000F060
:100D7000F3F90F48032C17D2EFF31081012282F30D
:100D800010881822624310181830002C05D0076014
:100D90004660856000220261C260069A4261C8B264
:100DA00080F310880020F8BD0020C043F8BD00008B
:100DB00020010020F8B507460A48154600780E467F
:100DC000532801D000F0C8F9EFF31084012080F31C
:100DD00010882A463146384600F006F8E1B281F321
:100DE0001088F8BD2001002070B50E461821484338
:100DF000134914464518E86A1835002804D001281C
:100E00000FD0022805D113E0284600F0D9F9A042FE
:100E100001D2002411E022463146284600F0FBFAB8
:100E20000BE0284600F0CCF9A042F4D20446F2E7E9
:100E30003146284600F0BFFA0446204670BD000047
:100E4000200100200FB408B504A900916A46039957
:100E500000F004F801B008BC04B01847F7B598B02A
:100E600007A802904020039000200C460490189997
:100E700015460826069105902178641C002970D03B
:100E8000252907D002A800F077FA05980028F3DAA0
:100E90001BB0F0BD01220020134602272178232930
:100EA0001BD02B2916D02D2902D0302906D101E0E4
:100EB000184300E03843641C002AEFD10021227857
:100EC0001346303B0A2B0AD20A235943891830397A
:100ED000641CF4E704210843EDE73043EBE700230B
:100EE000D7B22E2F0AD1641C22781746303F0A2F22
:100EF00004D20A277B439B18303BF4E76C2A0DD0C1
:100F0000682A0BD0702A4BD00BDC252A52D0582AE5
:100F100028D0632A0CD0642A50D10EE06278641C79
:100F2000ECE7732A2AD0752A13D0782A46D119E023
:100F30002868011D296001783DE02A68171D2F608F
:100F40001768009101900A22394602A800F043F97F
:100F500034E02A68171D2F6017680A22009101905B
:100F600007E02DE02A68171D2F60176810220091F6
:100F70000190394602A800F093F91FE02868011D8E
:100F800029600768002F00D115A739787F1C002938
:100F900014D002A800F0F0F905980028F5DA0DE069
:100FA00028680823011D296001680020102200968E
:100FB0000190DFE7252102A800F0DEF9641C64E758
:100FC000002800DC64E70498002804D0024607A942
:100FD0001898FFF7EFFE049905984018059057E719
:100FE000284E554C4C290000704700003CB50023AA
:100FF00020480093019301680124214301600221EC
:1010000005252D0302680A400192009A521C0092A5
:10101000019A002A02D1009AAA42F3D102689207EB
:1010200026D5154B112201941A604268426042682D
:10103000426042687F23DB039A4342604268212377
:10104000DB031A434260026801231B061A43026055
:1010500002689201FCD542689208920042604268A0
:101060000A43426041680907890F0229FAD13CBD51
:1010700001933CBD0010024000200240024801687C
:10108000491C0160704700002400002070B5164E16
:1010900071680C2001401548154C03D0042901D07B
:1010A000082901D0206014E072687168032392025D
:1010B000DB03150F1940AD1C002907D0F16A0907A1
:1010C000090F491CFFF732F86843EBE7094845432D
:1010D0002560706806490006000F091D085C21683C
:1010E000C140216070BD00000010024000127A0073
:1010F0003800002000093D0010B5144801680122A5
:10110000114301604168124A114041600168114A6F
:10111000114001600168012292049143016041681D
:101120003F22120491434160C16A09090901C16269
:10113000016BFF22543291430163416B490849001E
:10114000416300218160FFF751FF10BD0010024094
:101150000CB8FFF8FFFFF6FE10B5134CA82120468F
:10116000FFF727F803202061606110A0A0612046EE
:10117000A830E0610120400220620020A06260628D
:10118000E0620AA121660C4961661021A166206710
:10119000E0666067094A0F210B1AD35C2354401C98
:1011A0001028F9D310BD0000200100205465726D95
:1011B000696E616C00000000C8030020982F0008D1
:1011C0000269C1688A4203D88068401A801800E02A
:1011D000501A401E7047FFB583B00E4670420D9FF7
:1011E0000C9C0090002900DB0846012502E0FEF778
:1011F000B3FF6D1C05998842F9DA0698A84200D918
:101200000546002C04D0002E01DB780700D5641EB3
:10121000B80702D50698002810D0F8070ED1002C88
:101220000CD0A5420AD22021641E039800F0A4F835
:101230000398C0680028F2DA07B0F0BD0398C068D0
:101240000028F9DB002E02DA2D21009E02E078074B
:1012500007D52B21039800F08FF80398C068002869
:10126000EADBB807800F022810D1069800280DD1BC
:10127000002C0BD0A54209D23021641E039800F047
:101280007BF80398C0680028F2DAD5E7019700944C
:101290003146069B059A039800F002F8CCE700005F
:1012A000FFB581B001261F4635460A9C029802E030
:1012B000FEF73CFF6D1C03998842F9D2AF4200D97A
:1012C0003D460B98C00718D1002C16D00B9880070C
:1012D00001D5002F02D0202000900CE03020FBE749
:1012E000641E0099019800F047F80198C068002832
:1012F0003DDB002C01D0A542F2D30198C068002844
:1013000035DB012F01D97F1E06E031460298FEF73A
:101310000DFF0399884202D303984643F1E7154F26
:1013200031460298FEF702FF0146029A7143511AB4
:101330000291395C019800F01FF80198C0680028FC
:1013400005DB30460399FEF7F1FE0600E8D10B9865
:10135000C0070CD0002C0AD0A54208D22021641E60
:10136000019800F009F80198C0680028F2DA05B089
:10137000F0BD0000A92F000810B50446806863681E
:10138000421C934205D323681954A260E068401CB4
:10139000E060A2686068824209D121682069FFF795
:1013A00009FDA168884203D00020C043E06010BD61
:1013B0000020A06010BDF7B5054682B00020009067
:1013C000EC6817462869A04201D9061B02E0A9680B
:1013D000201A0E1AA868761E001BB04200D80646D6
:1013E000BE4200D33E466868324600190399FEF7B4
:1013F000C7FE0098BF1B801900900398A41980199C
:101400000390A868A04200D10024EC60002FD9D13D
:10141000009805B0F0BDF7B50446C7688068E1687C
:10142000C51B606816464018B54205D90199FEF7FC
:10143000A7FEB819E060FEBD2A460199FEF7A0FE9E
:101440000199761B606849193246FEF799FEE660FD
:10145000FEBD00000FB410B503A9044B044A029866
:1014600000F00AF910BC08BC04B01847D91E0008E7
:101470004C0000200FB410B504A9074B02AA039832
:1014800000F0FAF8044602A9002000F091FC204682
:1014900010BC08BC04B01847B11D00082021020C84
:1014A00001D010211046020A01D010460839020965
:1014B00001D01046091F820801D01046891E42083B
:1014C00001D0881E7047081A704730B47446641EF5
:1014D0002578641CAB4200D21D46635D5B00E318B7
:1014E00030BC184702E008C8121F08C1002AFAD110
:1014F00070477047002001E001C1121F002AFBD194
:1015000070470000F0B51FB486B00998089A030D23
:101510000021024314D05148514A18185043051471
:101520001198012810981AD0281A401C00264D4FF7
:101530004D49009601910490002812DA444211E0CE
:101540001198012449A3012801D11098C14306989C
:10155000119A84600360C26041600BB0F0BD4042EC
:10156000E4E70446210500203F4A001C5141039155
:10157000029012E0E00707D032463B4601990098FE
:10158000FFF790F80191009032463B46104619460D
:10159000FFF788F806460F466410002CEAD104983D
:1015A000039B0028029A0999089806DAFFF77AF84F
:1015B000019B009AFFF776F805E0FFF7DBF8019B47
:1015C000009AFFF7D7F804460E460022284BFFF793
:1015D00069F903D80020C043014607E00022254BEB
:1015E00020463146FEF788FEFFF73CF9102409E05B
:1015F000002C0ADB0A220023FEF74FFF079B303244
:101600001A55641E02460A43F2D11122641C079B3C
:10161000121B1C19119B012B03D0012308430ED16F
:101620000AE0084304D0112010900020119077E7C1
:101630001098151A6D1E0BE01098824202DD0023EF
:101640006D1C03E0824201DA00236D1E002BEED0F8
:10165000069811998260C16030C07EE701FCFFFFEF
:10166000104D0000000014400000F03F300000006A
:101670000000F0430000E03FFFB597B006460025AC
:1016800018E2252877D100242746FD49049400E07C
:101690000443761C32780120203A90400842F7D16A
:1016A00030782A280ED002223078014630390929B4
:1016B00016D804990A235943303940181443761C2C
:1016C0000490F1E7189802C804911890002904DAF0
:1016D0000120400304434842049002200443761C46
:1016E00030782E2814D1042004437078761C2A28E0
:1016F00009D11898761C80C8189009E00A214F4338
:10170000303FC719761C3078014630390929F5D9A0
:1017100030786C2810D006DC4C281AD068280ED0FF
:101720006A2817D104E0742813D07A2812D110E067
:101730000120400504430CE00121090501E00321DB
:1017400009050C437178814203D10120000524185A
:10175000761C761C3078119066280BD013DC582844
:101760007DD009DC00287BD04528F6D04628F4D06F
:1017700047281AD1A5E118E0632835D0642870D035
:10178000652812D19DE170286CD008DC6728F1D063
:1017900069287BD06E280DD06F2806D1BAE0732857
:1017A0002ED0752871D0782859D01A9A1999904757
:1017B0006D1C7EE16002400F022809D003280DD085
:1017C0000428189801680DD00D60001D189070E174
:1017D0001898EA1701680D604A60F6E718980168E2
:1017E0000D80F2E70D70F0E718986A4601781172E3
:1017F000001D18900020507202A80090012005E002
:10180000189802C8189000200091C04361070DD5B8
:10181000002101E00199491C0191B94212DA81428B
:10182000F8DB009A515C0029F4D10BE0002101E0C3
:101830000199491C01918142FADB019A0099895C66
:101840000029F5D1019904981A9B471A2146384678
:10185000199A00F097FA0199401945180BE04FE0EA
:101860002CE113E04EE0009800990078491C0091AB
:101870001A9A199990470198401E0190401CF2D184
:10188000214638461A9B199A10E137E00A200021B8
:10189000009001916002410F022907D0189A01CAF5
:1018A0001892C2179446032908D00AE01898C01D60
:1018B000C108C90005C91891944607E000B2C217D3
:1018C0009446042902D140B2C1178C4600226146D9
:1018D000944506DA0A460021404291418C462D216A
:1018E00002E0210504D52B216A461173012103E092
:1018F000E10701D02021F7E7029155E00A200AE034
:10190000102008E0102000900021042004430191E1
:10191000082703E008200021019100906002410F98
:10192000022907D0189A01CA189200229446032966
:1019300008D008E01898C01DC108C90005C9189151
:10194000944603E080B2042900D1C0B20021029184
:10195000210729D51199702906D0009A1021019BE1
:101960004A401A4305D00EE040216A461173012116
:1019700008E06146014306D030216A46117311998F
:10198000517302210291009A0821019B4A401A4397
:101990000AD16146014301D1610705D530216A466C
:1019A000117301217F1E02911199582904D035A18C
:1019B0000E910DA90D910DE037A1F9E76146019B4C
:1019C000009AFEF76AFD0E9B8C469B5C0D9A521E98
:1019D0000D92137061460143F0D10D9805A9081AC4
:1019E00020300190600703D501200004844300E00B
:1019F00001270198874201DD381A00E00020019993
:101A000000904118029809180498401A0490E003C5
:101A100006D421461A9B199A049800F0B3F9451987
:101A2000002706E003A81A9AC05D199990476D1C1B
:101A30007F1C02988742F5DBE0030CD521461A9BF8
:101A4000199A049800F09EF9451904E01A9A30207A
:101A5000199990476D1C0099481E00900029F5DCEB
:101A600008E00D980D990078491C0D911A9A199962
:101A700090476D1C0199481E01900029F1DC63E13B
:101A80000928010030313233343536373839616254
:101A90006364656600000000303132333435363718
:101AA00038394142434445460000000000F05AF9ED
:101AB0004519761C3078002800D0E2E528461BB096
:101AC000F0BD600700D406271898C01DC108C900E2
:101AD00048680A680831C30FDB071891190001D064
:101AE0009CA108E0210501D59BA104E0E10701D0FC
:101AF0009AA100E09AA1430011985B081091652813
:101B00000CD006DC452809D046281DD0472841D1F5
:101B100041E0662818D067283CD13CE00021112F15
:101B200001DB112000E0781C0191009008A911A8A8
:101B3000FFF7E8FC139905910021119A15927F1C7B
:101B400012980197009150E00120C00703900120F6
:101B5000019008A9009711A8FFF7D4FC139A1499D3
:101B600005920022119B009212981593059A0192FA
:101B7000002901D0104602E0791C40180190381A63
:101B800001D5019804E04042401E0090781C01906D
:101B9000C01B029043E0012F00DA01270021112F22
:101BA00001DD112000E038460191009008A911A83C
:101BB000FFF7A8FC13990591119A0021129815922C
:101BC0000091019721070CD40599B94201DB0199D5
:101BD00000E00191012904DD159A491E515C30296C
:101BE00006D0B84201DA011D05DA0121029115E0A3
:101BF0000199491EEDE7002805DC00994118009184
:101C00000199091A03E0019A411C914200DD0191FA
:101C10000099401A401C02900120C0070390200741
:101C200006D402990198814202DB0020C043029051
:101C300000206946C87707AF012103980337C90719
:101C4000884224D0022011902B2012900398002863
:101C50000CDA404203902D20129007E00A210398ED
:101C6000FEF764FA30317F1E039039701199481ED7
:101C700011900029F2DC03980028EFD1791E129808
:101C800008703078202108404530BF1E387006A803
:101C9000C01BC01D039010980078002800D00120C0
:101CA000019941180298C017091803980918049857
:101CB000401A401E0490E00306D421461A9B199A4C
:101CC000049800F05FF8451910980078002803D0B8
:101CD0001A9A199990476D1CE00324D521461A9B46
:101CE000199A049800F04EF845191CE00098002855
:101CF00007DB00990598884203DD1598405C199927
:101D000001E0199930201A9A904700986D1C401CE8
:101D100000900298401E0290002804D11A9A2E20AA
:101D2000199990476D1C0199481E01900029DDDC2E
:101D300005E038781A9A7F1C199990476D1C039911
:101D4000481E03900029F4DC21461A9B199A049836
:101D5000ACE600002D0000002B0000002000000079
:101D600000000000F8B5044600251E46174688040A
:101D700004D405E039462020B0476D1C641EF9D517
:101D80002846F8BDFFB50446002581B01E46C803AD
:101D900001D5302700E02027880404D505E0384627
:101DA0000399B0476D1C641EF9D5284605B0F0BDF7
:101DB0000A68531C0B6010707047000010B5074B89
:101DC000074A0849084800F04BFB074800F071FE3D
:101DD0000021054800F07DFE10BD0000F91E00083E
:101DE000712B0008A46500088C00002070B5044623
:101DF000408A002803D00F49C8421AD102E0606926
:101E0000002810D0204600F02BFA0546800703D5A5
:101E100009A10020FFF716F86807F0D509A10020F6
:101E2000FFF710F8EBE7204600F0C8F90148404200
:101E3000608270BDA5FDFFFF6765742064617461F9
:101E40000A000000676574206B6579200A000000B5
:101E500003490A680B689B1A8342FBD37047000052
:101E60002400002038B5FFF711F917487D21C9007B
:101E70000068FEF75BF915490022401E88420BD826
:101E80001349486113480723C4692402240A4D04F6
:101E90002C43C4618A610B61002300921A461946E3
:101EA0001846FEF75BFF00F037F80020FEF7D2FE81
:101EB0000120FEF7CFFE0220FEF7CCFE0320FEF746
:101EC000C9FE00F0E5F838BD38000020FFFFFF0034
:101ED00000E000E004ED00E013B5012269460020B7
:101EE000FEF768FF00980A2804D101226946002005
:101EF000FEF760FF00981CBD10B51046282909D0D8
:101F0000292905D04C2905D04D2903D0002010BD2A
:101F1000FFF79EFF012010BD10B5012186B04802D9
:101F2000FEF704FF6846FEF734FD002001216A46F3
:101F300000901171124C0290049005906946204661
:101F4000FEF70CFD0121072209042046FEF7D0FC14
:101F50002046FEF7DBFC01212046FEF7CEFC0121E6
:101F60002046FEF7EDFC0028F9D00120FEF71AFD0F
:101F70000120FEF725FD2046FEF706FD06B010BD48
:101F8000002401404A68486006C008381060704765
:101F90000168002904D04268002A01D04A6011601B
:101FA0000021016041607047FFF75CFFFFF706FF0B
:101FB000084800687D21C900401807498860084624
:101FC00000F0B4F800220549054800F00FF900F0D0
:101FD0001BF9FCE72400002004000020ED1D000890
:101FE0007000002070B58AB01020FEF7ABFE012112
:101FF0008804FEF777FE01214805FEF77FFE174DA6
:102000002846FEF785FD164E012206213046FEF7D2
:102010001DFD012207213046FEF718FDC02000906B
:1020200002206946087100244C7101208871CC712E
:102030003046FEF7D3FCA81408940390079409488F
:10204000029005940494069402A92846FEF77CFDAC
:1020500001212846FEF751FD0AB070BD0054004032
:1020600000040048070521F010B5044680687D2172
:10207000C9004018A060204600F058F8E068401CF5
:10208000E0608007800FFEF715FE00F00DF810BD30
:1020900010B500220249034800F0A8F8002010BD46
:1020A00071210008D80300203EB500200090019067
:1020B0000290FEF7E9FCFEF7DCF904460D462246E5
:1020C0002B4610A0FFF7C6F9114800F0D3F82246BE
:1020D0002B4610A16846FFF7CDF910490C4800F0D7
:1020E0007CF96B460A220021094800F053F90CA341
:1020F0001E220021064800F04DF9054800F065F960
:102100003EBD000074656D703A25660A000000004F
:102110008C00002025302E3266000000B92F000808
:10212000746573742B6F706F7000000010B5EFF35F
:10213000108472B60168002902D04168002902D1DA
:102140000249FFF71FFF84F3108810BD280000200C
:1021500010B5EFF3108472B60168002904D041680D
:10216000002901D0FFF714FF84F3108810BD000090
:10217000F8B50646408A002801D0762819D10D4FBF
:102180003C680DE00C48A1680068401A07D420465E
:10219000FFF7DEFF2169002901D0204688472C4641
:1021A0002568BC42EED10121304600F011F87620BE
:1021B0007082F8BD2800002024000020EFF3108179
:1021C00072B6002242610122027481F310887047C6
:1021D000EFF3108272B6044B1B685918816102211B
:1021E000017482F31088704724000020002343828A
:1021F000C260816003494A68486006C008381060C0
:10220000704700001C00002070B5134D134B286868
:10221000002402460DE0017C022909D181691E6873
:10222000711A05D4EFF3108172B6047481F310882B
:102230000068A842EFD1084C241F2260166807E00E
:10224000017C002902D18268C16890472660366807
:102250002068A842F4D170BD1C000020240000209A
:10226000EFF3108172B60023426981F31088436155
:102270001046704710B501683822097C125C406B2B
:102280004A43D100FDF795FF10BDF8B50446603014
:10229000007C1F4615460E46002806D0012809D0AE
:1022A00002280CD0032815D10FE0E16D20468847A5
:1022B000401908E0E16D20468847301A09E0E16DD9
:1022C00020468847281A85B204E0E16D20468847F9
:1022D000801986B22046294640308684C184002574
:1022E0003946204600F0A1FA010003D0204600F054
:1022F000CBF985B22846F8BD7FB505468C2182B062
:10230000495D0A98002936D06946898A002932D069
:10231000012911D9022802D0032807D00CE06A460F
:102320009289511A6A46491C918105E06A46128ACF
:10233000511A6A46491C1182C6072C46F60F4034D2
:10234000002E1AD0684621898089814213D861897C
:10235000814210D9E389A28905A904A800F008F9EF
:10236000002808D00096286B84686846838A028A11
:1023700081892846A04706B070BD6846A189008AB9
:102380008142F8D8E1898142F5D96389228905A97A
:1023900003A8E3E710B5024C446000F017F910BD44
:1023A000FD2E000870B5044640341E460D46E189F6
:1023B000A089049B00F090FA002805D0618920894B
:1023C00033462A4600F088FA70BD10B5044600F086
:1023D00010FB204600F075FB10BD10B50446806D63
:1023E000884207D020467430A16500F0CDFA20461F
:1023F00000F052F810BD00000149C16570470000AF
:102400003D2600080022014640310A828A82034AA2
:102410004A82CA82016B496808470000FFFF00003A
:10242000F8B50025069F04468565C36241632030E8
:1024300002764576264660362046803075734574B0
:10244000457301218174C174276339682046884728
:102450002046FFF7D7FF2046FFF7CEFF3574F8BDC3
:102460007CB500930C4613460546084A084900F01F
:1024700038FB01A800F082FA014668460094027910
:10248000044B2846FFF7CCFF7CBD00007D2C0008E4
:10249000612E0008F128000810B5816D002917D0C1
:1024A0000146803101228A568A730223CB56CB73B0
:1024B0004C7B002C0CD0012C0BD07E240457002028
:1024C00008562418944200DD8C73834200DDC873E3
:1024D00010BD03200856824200DA88730420085693
:1024E000F3E7002B05D0012B05D0022B05D0801877
:1024F00004E0401802E0801A00E0401A80B2704701
:10250000002B05D0012B05D0022B05D0401A04E08A
:10251000801802E0401800E0801A80B2704738B599
:10252000044605464034E08A0090638AA28A218AE4
:102530002846FFF737FF8035002816D00120287382
:102540002189208A814200D220816189608A81426A
:1025500000D96081A189A08A814200D2A081E1894D
:10256000E08A814200D9E08138BD0020287338BD5F
:1025700030B504880D882D19ADB2AC4205D99C4206
:1025800002D25D1EADB200E014469C4201D29542DB
:1025900001D8002030BD944200D214469D4200D99B
:1025A0001D460480281B0880012030BD38B5C58F2A
:1025B000049C0094521BC46A92B2A04738BD38B53F
:1025C000049C0094FFF7F2FF38BD0000FFB581B016
:1025D0001E4614460D46019800F08CFC0027019819
:1025E00031784268904714490346884220D0481EFB
:1025F000761C8342F3D0224629460198FFF745FE18
:1026000001996031097C002906D0012906D00229F0
:1026100006D0032909D106E0291802E0211803E0B9
:10262000291A8DB201E0211A8CB2381887B2D6E788
:10263000384605B0F0BD0000FFFF000000207047E5
:1026400010B50C4600F006F80122641EA240801A64
:1026500040B210BD70B50568047B2B78E34062186A
:10266000D2B2082A09D30826341B6D1C05602D78C8
:10267000A5401D43083AEBB2D2B201248C40641E3F
:102680001C400273204670BDF3B583B0039C204606
:10269000603400F006F90B256557A17E2046FFF750
:1026A000CFFF0746E17E2046FFF7CAFF0646217F9F
:1026B0002046FFF7C5FF01900A202056002858DD6C
:1026C000A819404246B2237CA08832463946FFF71B
:1026D00008FFA080237C3246E0883946FFF710FFD0
:1026E000E080A188267C02460B46002E06D0012EF3
:1026F0000AD0022E40D0032E0FD146E00A26A6575C
:1027000073189BB2501907E0591B0A26491C5B1C21
:10271000A65789B29BB2B01880B200900398FFF719
:1027200041FE002825D00020207260722046A17D45
:10273000FFF790FF07462046E17DFFF78BFF064637
:1027400000223946039800F029F801223146039807
:1027500000F024F801212046FFF77CFF0028EFD18C
:10276000092161562046A942E0DB817B0398803035
:102770008174019805B0F0BD0A26A657991B491C23
:102780005B1C89B29BB2421B04E00A264B19A65778
:102790009BB2821B521C92B2401CBDE7F7B588B0B9
:1027A000089C0D466034207A06900898677A80303D
:1027B0000790A07A0699401AC6B20196B54200D297
:1027C0000195A088E18805910699237C7AB249B2E7
:1027D00003920491FFF785FE0290237C039A0499EB
:1027E0000598FFF78DFE02460A98002801D0A17BCC
:1027F00003E0607B002809D1E17B07988174207C8D
:102800000090019B02990898FFF776FDB54206D328
:10281000A81BC5B200207F1CFFB20690C9E706982E
:102820004019207267720BB0F0BD70B50D460146BD
:10283000806D80311730FF2D0FD8612D01D30989AC
:1028400002E0412D01D3C9880818417800291FD022
:102850000278AA42F8D1801C70BD49890C1826461E
:102860000021304600F016F804190221304600F02D
:1028700011F8361DA842F3D320780102607808438E
:1028800006D0A84201D1E01C70BDA0780419F3E77E
:10289000002070BD4018017840780902401880B2CD
:1028A000704730B504460546016660340020207349
:1028B000217E2046FFF7CEFEA072617E2046FFF704
:1028C000C9FEE0728035A87CA073002802D00020E9
:1028D000E07330BD0120FBE78A4205D2834201D874
:1028E0009A4203D9012070478342F9D800207047EB
:1028F000F0B556078E46760F01219446B140024648
:10290000CFB2803211460025927C2C46012A01D894
:102910003D4600D03C4607686246D2083F7CD20064
:102920005743BAB2476BBA18059F7244002F09D1BA
:102930001078284360401070521C5B1E1B041B0C57
:10294000F6D1F0BD1778761C2F43674076075B1EE3
:10295000760F17709BB2002E06D06D062D0E640602
:10296000240E002BEED1F0BD478FBA188F7C012FBB
:1029700002D80125012FF4D00124F2E708210170CB
:1029800000487047F403002070B5044608782070B2
:10299000487860708878A070C878E07008792071F5
:1029A0004879607188790D46A071E879E071287ADC
:1029B0002072687A6072A87AA072E87AE072287B46
:1029C0002073687B6073A87BA073E87BE073287C2E
:1029D000207411212846FFF75DFF608213212846ED
:1029E000FFF758FFA08215212846FFF753FFE0822A
:1029F00070BDFEB5064600242030017E0291457E62
:102A00003068407C0190336821461B7C776B5943CA
:102A1000C904090C7918009130462A46002100F0BB
:102A20003BF8641C6D1C0298E4B2EDB2844202D201
:102A300001988542E7D3FEBD70B5024620321446A8
:102A4000127E0168D30083870B7CDB004387637EA3
:102A5000DC00C4874D7C9E18AE4201D9EA1A92B2BE
:102A60004030D2000480A21842808A8A8280C98ABB
:102A7000C18070BD10B5FFF7DFFF10BD10B5014676
:102A8000002240310A818A884A810A888A814A88DC
:102A9000CA81FFF744FD10BD7CB56D46069C697187
:102AA000AA712B710094012284686B460F21A04704
:102AB0007CBD30B484680023A44630BC1A460A2189
:102AC000604730B484680023A44630BC1A46102105
:102AD000604730B484680023A4460A4630BC0B210A
:102AE0006047F8B516460D460446069F00F008F804
:102AF0006761E660A5602046236100F013F8F8BD29
:102B000007498160C16000220161026041610146A4
:102B10002031CA708A718261FF2008710872704783
:102B2000BD2E000830B484680023A44630BC1A4689
:102B30000921604730B404690023A44630BC1A461A
:102B40001921604713B501AA012100F001F81CBD4D
:102B500030B404691346A4460A4630BC17216047C6
:102B600030B404690023A44630BC1A4618216047DB
:102B700070B5142915D0114C172905D0182913D078
:102B8000192914D0002070BD0D4907E020781D7868
:102B90000D54401C521E2070D2B25B1C002AF5D18D
:102BA00009E0FFF71FFA06E00020207003E021781B
:102BB0000348FEF70BF8012070BD00000000002064
:102BC0005000002030B4C4680023A44630BC1A462C
:102BD0001921604730B4C4680023A4460A4630BCBB
:102BE0001621604730B4C4680023A4460A4630BCAE
:102BF0001521604730B4C4681346A4460A4630BC69
:102C000017216047F8B50C4605462178641C182941
:102C100024D00EDC152919D0162917D0172923D155
:102C20002078694608706A4601212846FFF7E2FFCE
:102C30000AE0192912D0FE2916D1227868460270BE
:102C40002921284600F03CF9641CDEE7227868461A
:102C50000270EE6800232846B047F5E70023EE68CF
:102C60001A462846B047D0E7F8BD30B4C468002300
:102C7000A44630BC1A46182160470000FFB5144630
:102C80000A462B4F0646143A81B0002538781300C7
:102C9000FEF71BFC063404171C42454B002802D0EB
:102CA0003046FFF747FF3046FFF75AFF0021304616
:102CB000FFF748FF21463046FFF744FF01203870F8
:102CC0002BE021463046FFF73DFF26E0002802D0EA
:102CD0003046FFF72FFF049F06E01821304600F032
:102CE000F5F8183CE4B21837182C3A46F5D82146C6
:102CF000304600F0EBF80E4805700EE0304620300C
:102D00000279FF2A01D178220271356922463046C4
:102D1000049BA84705B0F0BD3D700120FAE70028EC
:102D2000FAD03046FFF706FFF6E70020F2E7000092
:102D30003000002070B50023456904461A4628215A
:102D4000A8470023E5681A4614212046A847012217
:102D50004B21204600F0B4F8206829210279204652
:102D600000F0AEF800224B21204600F0A9F82068C0
:102D700029210279204600F0A3F801224B212046A8
:102D800000F09EF8206829214279204600F098F84A
:102D900070BD0160897C203081707047F8B51D4698
:102DA000144606460B2909D0374620370D290ED088
:102DB0000E291DD00F2926D00020F8BD002A03D0EF
:102DC0002649FFF71FFF47E02449491FF9E7002A7A
:102DD00007D022490C31FFF715FF3068C07CB8706E
:102DE0003AE01E49491DFFF70DFF3068807CF6E789
:102DF000FFF73BFF81213046FFF7F4FE21463046C6
:102E0000FFF7E8FE25E0FFF730FF6879B978C000EA
:102E10000818C7B240213046FFF7E4FE39093046B2
:102E20001031FFF7DFFE3907090F3046FFF7D2FEFA
:102E3000A979B02001433046FFF7CCFE28792A68F3
:102E4000C006010E3046FFF7D5FE641E2406240E90
:102E5000F4D13046FFF7B6FE0120F8BDB565000895
:102E600070B50446092921D00A2917D00D2903D0AD
:102E7000FFF794FF012070BD25462035002A06D0BB
:102E80000C49FFF7BFFE2068C07CA870F2E7094933
:102E9000C91FFFF7B7FE2068807CF6E7FFF74AFFFF
:102EA00004492046D331FFF7ADFEE3E70249FFF7BF
:102EB00070FFDFE7CF650008D86600080020704784
:102EC00030B444690023A44630BC6047F8B51646C8
:102ED0000F460446FFF744FE40212046FFF732FE2E
:102EE000256933463A4617212046A8472046FFF772
:102EF00021FEF8BD002120308171704710B50246D7
:102F0000002915D00A2913D01046203083791D4C92
:102F1000002B10D05B1EDBB28371108C89068005FC
:102F2000000C890E08431084002B00D0204610BDF1
:102F30001448401C10BDFC2904D30523C907837124
:102F4000C90F1AE0F82904D3042389078371890F74
:102F500013E0F02904D3032349078371490F0CE0E0
:102F6000E02904D3022309078371090F05E0C02972
:102F700005D30123C9068371C90E1184D6E708461B
:102F800010BD0000FEFF00003031323334353637DB
:102F90003839414243444546000000000000545483
:102FA000522052454747455300303132333435368D
:102FB0003738394142434445469C00030205050425
:102FC0000506101000FE0AFE0BFF019B033304FFF1
:102FD000200600A04701210841314471480422081D
:102FE00085284691B905230F462544D5D330245171
:102FF000CB30443D012412472544170E4A1449E1C1
:103000003C4652651033002514472544A3494929FD
:103010008994344E1329899292A60026124725449A
:10302000B595B24A282691968849264D01270781F1
:1030300030463104280C83ED43954449D45B940514
:10304000290D83E943914559D44B9444002A0DE757
:10305000644457AAB46D49532D032B0CE7644417FD
:10306000D786218B6B002C0982AC43A1240A002D4A
:103070000724284531042E07422C4431042F0C46E6
:1030800025445BAC8669584D013012462544A54560
:1030900049A84D89126D6212651200310B45294411
:1030A000954949D8A741320F4625443324A1986653
:1030B0005A584D870133104625443324A19846734E
:1030C0002A8AC990003410462544196A4954C99285
:1030D0002C19C6B402350F4625447148AB839CA613
:1030E00062322400360F4625443585693A28A163AB
:1030F000322400370B462544712DA6C5B40938107B
:103100004625443324A1311992D031191200390EC9
:103110004625443324A13119D4C668023A09E26C29
:103120004431C443003B0A22ED4331C44AA2003C6F
:10313000092529449975ED003D09A6A44471270E7F
:10314000033E092525449176EB083F0F462544337D
:1031500024A19886D51C4C23004012462544356591
:1031600052A2244BA4444A242DF110410E4625447A
:10317000A5452DA1380CA26300420E4625443128F6
:10318000A1715842C76101430E4625443324A1B5BD
:10319000A3980C0900440E46254431445912FA2DD7
:1031A000192200450D4625447148AB8392B60E03A3
:1031B000460C4625447148AB83927605470E46255A
:1031C000443324A1B53484366509480B462544119F
:1031D0003A0E83E831490B4529443148613F0D02DD
:1031E0004A0E4725443588714F5994651B004B1191
:1031F000462544116A4954C94431C9A25A12064CA1
:103200000946254491F6D7614D0D462544118AD3D0
:10321000102D1E1D034E10462544116E9B12299140
:10322000944889760C4F0C4625443324A13F26430D
:1032300002500D4625443128A17158D2AE005116D6
:1032400067E5433344611226611226611226899292
:1032500048D2900B52104625443128A17158A25AE9
:103260009225A118530D4625443324A1D9514C86EB
:1032700004540A47254471C8E2FE06550B4625440E
:1032800011FAC76448005611472544915A932CCA35
:10329000A2AC1226699C01570D462544117A7199FA
:1032A00086681403580F462544118A49D4266A516A
:1032B0004B2806590E47254491AA4916659534EEC8
:1032C000065A0B462544712DF69A0E035B0A83F1CC
:1032D000433144FDD3005C0C46254491C6D5388D5E
:1032E000AB015D0A83E54331F54F43005E09666437
:1032F00046A54549185F0727E4437108600763A89E
:10330000469115610E0625443324619A0CA34D594C
:1033100002620E66254491B62C9AE8B8290B006328
:103320000D0625443324A1DA31191200640C6625F8
:1033300044DBB268A3376509650F0625443324A131
:10334000380C6A31191200660C6525442785A541A1
:103350000A7B02671366A5439B2C5A922559B4A594
:1033600043128AC99000680C66254491B62C9AE8ED
:103370006300690B65294415E688D8A7416A0CA546
:10338000A5435947C43E4A91046B1166254491B642
:1033900025512513932CAA2561006C0A6529442325
:1033A000F64F83006D12072544B12851244552245D
:1033B0004552244552016E0B062544912C9AE86330
:1033C000006F0C0625443324A18FC99000700E466F
:1033D000A543912C9AE8B8294B9A02710C46A54353
:1033E000B368A33765490B720B062544912C9AA844
:1033F0007605730D0625443324A1EC980C0900745E
:103400000B45254415960629EC2A750A0625441114
:10341000FA4D5902760C062544111A93A837510229
:103420007711072544914A9114499114499154B157
:1034300000780F062544118A4994895A94846200C1
:10344000790E46A543117A4C224B5A1912007A0A7A
:10345000062544710D7B1D067B0EA4A943A564615E
:1034600016156B51160A7C07C1B143F1417D0FA4BB
:10347000A94321665116966A619648007E0A672420
:1034800046A34991A6007F2310A28391F43B49E70C
:10349000A4930E493625611A2543924D49984E430F
:1034A00032EC9C744E3A29E907802410A28391F4EF
:1034B0003B49E7A493366999922889A243120D618A
:1034C0009444C52859744E3A279D94F40300000093
:1034D0000C59390E8E706B0FFBFFFF20130726244B
:1034E00045714E00082FA085F1034E0A1FEFE183BE
:1034F0009DE3399EE3399EE3393E0C3992E3399ED0
:10350000E3399EE3399E23C3074E0B21EFA183F1DC
:10351000738EE7788EE7789483598E853994E648E0
:103520009A23399EE3399EE339024E0D23EEA1839F
:10353000333CE4480EE7680EE7A8924349944759A4
:103540009A85599826692AE7700EE7700C4E2A2052
:103550000FA2839FE3399CE4609643695E0D4B6A3A
:10356000AAE7788EE7788EE7788EE7780E4E2D1EE4
:103570000BAA839B63399663E9F0188AA1188AA184
:10358000180E0F6135C7722CC752004E3A240DA297
:10359000835FCC912C47B21C8D87E7344EE3244BDC
:1035A000B328CDA230CF7224CAA1244FEA50044ED2
:1035B0003B1FEFE1839D5372A6E12147723CC77325
:1035C0003C8786830EE5788EE7788EE7C3074E4802
:1035D0001DEDE5839DA33998A33998E5611CC66963
:1035E0003B9883E5628E44C3530E054E4B1EEEE5B9
:1035F000839BE3399CD387773447733447733447CD
:103600007334077530CAA170384E5F25EFE1839F90
:10361000E33956C74A72B6C4C9964E59A664E5AC9A
:103620009C25E52CCAB338CBB13A160E07014E667D
:10363000210EA2839DE55098236936DCA12C87B228
:103640001CCA7228CB8607B97F4BF2304772004EF6
:10365000861EECA583F11DCBB11CCB211DCBC11C5B
:10366000CCC11CCCC11CCCC11C4A722C064E8B2573
:103670000FA2839FE3F9F03D878683D8381C742816
:103680008786830E85D1F03D0C87830EE56892C353
:1036900039024E8E20EFA183351C7428C7733CC7B6
:1036A000F3E17B8EE7788EE7788EE7788E26399C7B
:1036B00023004E911DEFA183351C74FE3C7CCEE1AE
:1036C0001CCFE13047E23A120E8F3994E311004EDD
:1036D000921DCFE183333CC4399EE3393C0C7A9C84
:1036E000C7F5B83E0C3A9EC3399E0E1F4E9B24EF81
:1036F000E1839BE5583DCA9A96288CB235CAC2A888
:103700001646C99084833C2839B7E1CE79784800C1
:103710004EA4220FA2839D53723C1FBE13F3384761
:10372000C23C6A8DE22C07931CCEE124C7B45CD660
:10373000746C4EBA230FA2839FE3399EE3399EE354
:10374000399CE4689283598ED5A13447D2BC9A4300
:10375000590E26391C4ECE2C0FA28399E6489A2387
:10376000698EA43992E6489A23698EA4391226718B
:103770009225715489A3240BD32CAC46619C8439C7
:10378000124ED62D0FA2835987C21C4AA21C892A29
:103790006A1429A19448A1A444593244FD1AB5469B
:1037A00015352A66519E4579960D839683004EE520
:1037B000240DAA830FC56956CCC2AC98D5912C476D
:1037C000B23CCCC33C8CB23409934CCCA230AD6734
:1037D00039124EEA280FA28399E55818C549548D2D
:1037E000D2521A6A55AD98644D619287499EE64857
:1037F0009A23619267E528ADE4024EEC2C0EA28379
:1038000019E5581DCA92218BE22C8A23298EA438EF
:1038100029C552398BE22C8AB328CEA2388BE22CF0
:103820000A932C4A13004EF6270FA28399E6489A72
:1038300023513D8BF26C1832298BA52C4D8AA5386B
:103840004F864316E7711EE7711EE771084EFD2D86
:103850000FA28319E7599467511C666916865A9A14
:103860004971945486450AB334CCD2304BC32CCD25
:10387000C2340BD3284BD224CD004F182C0FA28377
:1038800099457956CEAA610E25C3211293584CD280
:10389000244CC2284CF230C9B328CFA2AC292B65E6
:1038A0004DE1902539044F1A230FA2839FE3399CE1
:1038B000E460964369AC4BD230443AB7E121CFE1A2
:1038C0001C4EF3EA70507324024F202A0FA2835932
:1038D00087C21C0A73241A86B42EE688321C9262B0
:1038E0001C6539160D439A2369560E933CCD9138C9
:1038F0008F43004F462C0FA28399E3399E0C831807
:10390000C5611467529C49C32025519C44E5308A07
:10391000C36818C4280E733CC793E190E520004F9C
:103920005C2D0FA28319E5609483518E65C3A04579
:10393000498E48498E28519E848354CCA13087C239
:103940001C0A87B10E853914E65018034F602B0FFF
:10395000A28399E5581DAB43D93068E5488A3325E1
:103960004C93388CB22849B3A818655118652D615D
:1039700056CEC3244F53004FDD280FA28399E3C9CD
:1039800030C4495A4A4B69280D43A8C6495A4A8649
:1039900063B86749396A4DB2A2584B73244D014F41
:1039A000E12B0FA2835987D21C49865B8EE7B03684
:1039B0000C998E26391865C310E6788E67C3106699
:1039C0006998A561360C6196260050A82F0FA28336
:1039D00017E771AE0D4A548CB2284C327118143D61
:1039E0004C862C8FA2618B925A49CA4AD9A045496C
:1039F000AD2465A56CD0E22C0150CF2F0FA2831906
:103A0000E56034E8491827C351C9A24CAA65D230F1
:103A10004849184759928589D29A4572222969984E
:103A200054B3A89828B56A0A5145240FA2839D5320
:103A3000F2E16B8EE7709A5787839E45799663759E
:103A4000AC0E85591A66619A45FA90005146290EC6
:103A5000A68399E55096664DB5284CB2244DB21C0C
:103A6000CA742D49932CCAA2AC92D591B01696D2A5
:103A700030C9871D065165240FA2839B53724A8E5D
:103A8000E7780E27399AE4689283598ED5A1344796
:103A9000D2BC9A23618E45392A516C24EFE1838F81
:103AA000E4609483518E853914E6485C47C26A9479
:103AB000C66A8E673994E6713C1CE23C035173225E
:103AC0000FA2839797F334A70F071DCAF11CCF8766
:103AD000EF399CE4689283590EA5B12EE9A00051FC
:103AE00076260FA28399E6489A0E0F691D497364E2
:103AF000187224CD913447862147D21C49C3E13B3B
:103B0000B55ECDA1085185240DA6839DA3391A0F5A
:103B10000F6AAAA66A2A26A118655A184971A2E452
:103B2000890EEAA00E253A9600518C25EFA1833725
:103B300044431AB546AD516BD41A350DDFA2D6A851
:103B4000356A8D5AA3D628C9C248694BB30C51FABD
:103B50001F0DA6839DA379580A4B61292C0D073DA3
:103B6000CC73344E53355553351D1E743451FB1EE2
:103B70000FA2839FE3399E43C34187723CC7F3E1A1
:103B80007B8EE750D8FF381C743C025206270FA2E8
:103B9000830FE5581D0B7324CDAB3994E560120DEE
:103BA0008396863914E6509823698EA4795C4CE29A
:103BB00032005207260EA28397C3399C0D439666A6
:103BC000D52C1BA26C50B36A56CD4AB54A56D3C207
:103BD0002CACA77196C469045220390FA2838F2799
:103BE00043328449944461122551A594449552125C
:103BF000554A4954195E9A92A8524AA24A29892ADA
:103C0000A524AA9492284C12250AC5A494845998F4
:103C10000052302C0EA2830F0F87B08E6471542B8C
:103C20002569140D87240AB3240AD3284CA36418E9
:103C3000A2621A8539120EE23027752C0152362AFB
:103C40000EA2839B47F5A81E0D4312255918A561A6
:103C5000343CA561948651340C49D425EA129594DC
:103C600030AAA42D699C005237320FA2838F47C31C
:103C700020467118C561340C4A540BA35A18D5C29A
:103C8000281A06254A4A95282955A2A45489A448E9
:103C900009B32849E334892B00524D280FA283979A
:103CA00097F3341CBED30635CCA262161507A9982B
:103CB00045C52C2A0E52314BC32C0D935A1246691E
:103CC00006526A240FA2839986C377DAA0865954D4
:103CD0001CA462161507A998A56124EAC4E13DAEAB
:103CE000A795500F0152A1240FA2839BE3393C0CEE
:103CF000B21A47910EEAA0A44B9931DD863B14E637
:103D0000489A23691E1793B80A52A82D0EA2830F52
:103D1000E5703A68399C83C39043D9304859146799
:103D2000519C4569984459986451380C499A6449A2
:103D30001A67499C46005343200FA2830FE6E020F8
:103D40000E3B9EE3399EE3F9F03DC7733CC7733CDD
:103D5000C7733CC7730053551E0FA2839757732830
:103D6000CB8783D8C7E120F67138E8508EE7C3F7D8
:103D70001CCFF11C535A290FA2831527691C85C932
:103D80007090E23C1A2EC3D634DCA2AC69B8455917
:103D90003B1426C341CAD2B0A724CC910C53612452
:103DA0000FA2839DE3393E0C3992E3399E23C3E78A
:103DB0001CCFF12807B31C0B7328CD911CCFF11C2D
:103DC00001537022EDA583A90FD930C4A11CCAE10B
:103DD0003024A11CCAA11CCAA1B4B48C510EE56840
:103DE0008EA60053BB210FA2839FE3399E43C3419C
:103DF00087723CC7733C1F3EE7780EE7709A57877F
:103E0000838E470053CC27CFA183711986380AA32C
:103E10002C0AA32C0AB3242B2659B512A7499AA41D
:103E20007192D62A611665519CE60553D1230EA6E0
:103E3000839D4359350BB33A343CE7680E0F839AA0
:103E4000A4A5B0560D93344EE3248734711753D68E
:103E500029EFA183F18E64C9B095B26C90B2A6AC83
:103E600029CB0629EB126695301A92D2A084DDA1E7
:103E70002CC99128CB933453E31AABE983F11DD2BB
:103E8000211DD2211DD2211DD2211DD2A1E12187C8
:103E90000253EA1EEDA583351CF3300FF3300FF308
:103EA000300F87639E13D3B89823518EE960005377
:103EB000EF21EEA583F141C772381DB434AB66D54E
:103EC000AC9A55B3EAA0A5591DCEE11C4C7234043E
:103ED00053F0210DA6839BA3399883693DCBA16440
:103EE0007848722CA70CC73CCCC33CCCC3E19847A4
:103EF0000053F71FEFA183379CF3388FF378B81383
:103F0000878F399CE3C31DCFF11CCFC12487530099
:103F100053F826ECA583331C7430078783928339CA
:103F2000180D5B146651984561168559346C51988B
:103F3000E55092630900540C25ECA983F121C77464
:103F40004C190645C7744C1A26298CA43092C248D5
:103F50001A26298C744C47121D4A00540E260FA2B3
:103F6000830FE6E0A00E3A96E3393EBCE5788EE793
:103F700078320C6A1287511C4671568EC261D0E3AA
:103F800008542726CEE5833B0CD190445DA22E51E8
:103F900097A84BD46518A24A1A5572644872244AED
:103FA000F2344FF3781804548C280EA2839BA33B61
:103FB00032E4703888B5E19285B54CCCB2AD9494BA
:103FC000B22829654914665A3888B5308773085471
:103FD000CD2E0DA6838FE468386469940CA72496CF
:103FE00092584A92219192522225A5444A4AC9A048
:103FF0009412294986248DD3380D93B402552E2965
:104000000EA28319E5581D1A0E59980F072909D3D6
:10401000683884756438E8B4E110E6489823618E06
:1040200084C321CC91045546270DA6839BC3F1F090
:1040300090A579960E072987DAA24A9A44CAA04821
:10404000B5A82D2A0D521DAA27518E440056682965
:10405000EFA18335488356CA9AB26C90061D8972C7
:1040600030CB86CF498E99754907A5411AB452D6EF
:1040700094658334280056DE21CCE983F121C7748E
:104080004C1A26298CA43092C2480A23298CA46198
:10409000D2311D1B1E742C56E022EDA583F1410781
:1040A000D5544DD554192E6A2A26A118655A184997
:1040B00071A2E4890E0EDFC10056FD22EDA583F149
:1040C00041077550192E6AAAA6D230446AAA2699C9
:1040D0001A45CA70D1411D1CBE830156FE21EDA5B3
:1040E00083F1418CC5581B265BA64449A8A69AA219
:1040F0000DEA20AA72A8C9AA387C07035728270FFF
:10410000A2839DE3399C43C3C71C0F7324CDD538CC
:1041100049864B94E6489A23698EA43992E6C8F002
:1041200096830057302EEFE18317E7711EE759940D
:104130006751A20C4BA484592285D112855954CCC5
:104140002225CCA2245DA26C08A32C49E31C19866D
:1041500000573E2D0FA28397E3C930A8599866E512
:10416000AC362C519E454398A56196865192A54345
:1041700092455B948459984359926775441557400A
:1041800028EFE18317E7711EE759946751382C51E6
:104190009E454398457916E559946751BE44E11808
:1041A000A5A51C1A0E01575B24EFE18397E3399E06
:1041B0000D4398E33938EC6834DCE23CCED31C493B
:1041C0007364CAA2318DC2E11E07578329EFE183D0
:1041D00017E6509A23698EE478340CCAB0A339925A
:1041E00066619A856918C561144FB535497324878E
:1041F00086430057DF300FA2839523B51C89EA4818
:104200001A0D872847B2414EB321896A5112D5A2AF
:1042100024AA45492D1B92DA1EAD4BDBA6C459A436
:1042200043610058992D0FA28315E7711E0DB73811
:10423000CFA2D22025D5683844399E0D4398A56178
:10424000962CE1D2694B962C4C73641872248D0025
:1042500058F3260FA2839FE339323CE4488EE7D817
:1042600070A70E0F4A8EEA683A0C3992E6489AC750
:104270005994673B34045907230FA2839BE3393CCD
:104280000CB29A4A590EEED07687B6E19C95B3F2FD
:1042900070CECA597938E71900590D240FA28397B7
:1042A000E3393E1CB41C4E865B94C7C3398F873BF1
:1042B00092C3C320ABA994E5E00E6D7768591A212B
:1042C0000CA6839B8339360C619A8D7994434A2CD2
:1042D00085DBB0D6D448CA72A40EE9F30E01592783
:1042E000210FA2839FE3399EE3399E0FDF733C8742
:1042F000931C4D7230CBB13A94E6D51C8A74505958
:104300002922EFA183351C7428C7733CC7F3E17BD6
:104310000E27399AE46096637528CDAB3914E9A06D
:10432000005934250FA2838FE4788ED5C12847A287
:104330003A14E65098E3F1F03DC7931CCC7228CDB7
:104340008B3A94E860025939230FA2839FE3399E88
:1043500023C3438EE4587B5407F3E17B0E27399A3D
:10436000E460964369AC4B3A28597931EFE1831701
:10437000E7711EE759140E4B946851122959942481
:1043800052160D49944549D49392255125CDA22C1E
:104390004AA25A9225B1180D4300597D280FA283D5
:1043A00097E3E130E6509823D1B096C2380AE3286B
:1043B0001906A99846699CA4795C496B615392C31C
:1043C00029005982290EA28397C3399CC3E9F0942E
:1043D00045599445599445599425619445B596ACF1
:1043E00058AB64A52C1A9430CA74185B501FEFA107
:1043F0008333BCC3399CC339AAC3F9F03DC7733CAE
:10440000C7733CC77334C9E11C015B57230FA283F8
:104410009D5372647850725447C361D0E11CCEE161
:104420007CF89EE3399EE3399AE4708E005B58284D
:104430000FA2839BE339347CCCF11C8E8621CD53B3
:10444000394DD252321CB23447D21C497324CD911B
:104450002CC99130065B66240FA28395A5B530CD9B
:10446000EA703A3C2839AAA3E130E8708ECAC3F753
:104470001CCFF11C4D723847005B9A260FA2839D1A
:10448000537264785072544773E270D0A11CCFB15C
:104490003A960D6B966375288972241B0E3A015B60
:1044A0009D23EFE1839D537264785072544773DA11
:1044B000F09023399EE339341C7428C7A31CCCB276
:1044C000E1035B9E260FA2839D5372647850725461
:1044D0002BC6510E463914E6581D2B0FDF931CCC0A
:1044E00072288DF54CC712005BA2230FA2839D5347
:1044F000726478507254CB917418E4162D07776863
:10450000BB43DB70CEE33C1ECE79065BA422EFE119
:10451000839D5372647850725447B3E1A0E7709A58
:104520000F77AC8EE5D070D0A11CCF870F5BB6297A
:104530000FA2839D5372647850725447A3E121CF38
:104540005125CC362987923A22C99B92434AA46AC4
:10455000E1A025399C035BBD260FA2839D537264A5
:1045600078507254CC6AC341CF72A6E19CC75939C6
:104570002B47499423519A69E9100F035BF9270EE1
:10458000A6838FE5700E67C39823C930A46129AD57
:1045900044E53089C3244DD252580BB31CCAC12400
:1045A0004743005C0F230FA2839FE3399EE3399EAC
:1045B00063CD5998666916A6591827692CD7733C9C
:1045C00047931CCE11005C312F0FA28315E7489A48
:1045D00064C310D5C12807E341190625AB845925CA
:1045E000CC2AE1A02571188549A91655A25A535223
:1045F0000BA72C47005C4027EEA183351CB41CCAD6
:1046000072281B0E5A0EE7F0F0946351344C8D5112
:10461000639464C394E4A00E25391A015C4F24EE20
:10462000A183351CB41CCA72281B0E5A94865935B6
:10463000196EAD597578CA8AB5300BB3B09E660055
:104640005C5E27EEA183353CE558343CE57032DCF6
:10465000D23C196E49D632DCD27C78294649CB301F
:1046600024529E643992005E16250EA68315F738F3
:104670008895E2B0142BC54AB1521986A46BD23585
:10468000499634AB66D52C1B86AC9A005E26250F66
:10469000A28319D591A83A3CA4511D89EAE4E141CD
:1046A0004963390D877356CECA5952CEA21CCCF13C
:1046B0001C5E55260FA2839BC5C3439CE5C870CEE4
:1046C000E3E19CC7C31DC9A1E15BEB709094ACA270
:1046D00055CA59948339005E74240FA28397E33935
:1046E0003E1CB43447D23CCEA1E190863914E6504A
:1046F000180FDF911CCFF11CCFF1185E7B270EA2A3
:104700008399C3399A0D439643B53809E361C8D3F9
:104710003CCC912C87DA93301E063909E31C4B728E
:1047200034025E8F250FA2839F5372647888723C97
:104730001B863047D24A5C4F86831487519C95EB89
:10474000719EC6490EC7005E9426EFE1839F5372A7
:10475000647888723CC7C3344BB2308B8A59944515
:10476000611615B330CDC23A92E669343C5E972AA1
:104770000FA2839F5372647888D21C497324CD9111
:1047800074D8D21C4973241A06318AC328CECA5958
:10479000390A87418F23005EA6240FA2839F53729C
:1047A000647888B272561EDE9AB37236C8399E0C8F
:1047B000831AA5612D4DD75053F7015F0024EFA157
:1047C00083333CA47524CD913447D21C49C3E163A3
:1047D0009A23698EA43992E6711ED7D31C09015F12
:1047E0000F280FA2830FD5C12CC7EA583A7C8772D5
:1047F0003C1FA41C0A7328CCA13447D22C1CB2281D
:1048000019F224CA311D0F5F15230CA6830F0E83E6
:104810001887711887C930263994E4908E0D831853
:10482000877118877198256918075F53200CA68334
:104830005D2C65611665615447D2E11DCCC11C4CED
:1048400086830EE6600E0E0F39185F5524EFA183A4
:10485000351C723CC7E3E18EE778367CCFA1B09A75
:10486000493952D191A8AC659296A4728E005F9797
:104870002C0FA28399E3C930A4511A66C39045490D
:104880001A27C390E6B0340C52926751321CB23CE6
:104890008EC2382BE7719AC445005FAE310FA283F8
:1048A000574C93A6304A4A59A52D4A0665C8E228B6
:1048B000CB9192322CDD915A34444916B56451A5FE
:1048C00018455218B564499C6472165FC323CFE142
:1048D000839D53724A8EE7608EC7619467519E45EF
:1048E0003952CB915A1A89698EA439346C00600010
:1048F0002B0FA28397E3399E0C872CCED54A2D4EE1
:10490000D23809952CCA92288D6A619285599A23CA
:10491000698EA43992E6489A026027290FA283176C
:10492000E7719E457916E5D2304449539A44599A25
:10493000C46114E7D93084711EE7711EE7D170CBD2
:10494000410060F329EFE18399E3D92067B561C99C
:10495000E26C50B5EA3488495B292B67830EE56029
:104960001646B5A812C591380C1900620F2B0EA679
:10497000830FE570928351326C519CE5503628517B
:1049800032C44918856914A6499884491885B54CDC
:10499000D2A3240FE5026210280FA2830F25391A33
:1049A000E5603E3C44711EE771960D52D694750940
:1049B000B34A988551A52625592929877301621183
:1049C0002B0FA2839BE5D094844318C5611487E91B
:1049D000F0B10E85599A4459AA45A95149B3B0126C
:1049E0008559254A1255CBB10062342E0FA2839906
:1049F000A6C31025711A25C3772C1D86288D3A0D64
:104A000043D44FC310256156C986214BB3301A0ECB
:104A1000495316654AAA0662402A0FA2839DE6DB27
:104A2000739A23698E0C4A8E64C930445992855911
:104A300092858392856916A65935CCD2304AEB719E
:104A400004624B230FA2830FE6E0200E3B9EE33966
:104A5000341C7428C7733C1FBEE7788EE7788E2617
:104A6000399C23006253230FA28397E3391E0DB7AD
:104A7000381CC63CCEE33C097335964325CEE33C57
:104A8000CEE3340993B80A626B2C0EA28397C33924
:104A90001C0D839643C390673994E5509624C390C8
:104AA000E948A4434B0E653994E550160D835287AF
:104AB000EA20006284280FA28317E7711EE7615283
:104AC0001AA6240A2B59535629E54A1665729428CA
:104AD0007192E6489AC7D524D4331D62A42A0FA246
:104AE0008397E6489CC779363C287156CECA5992BE
:104AF0000C8326C591962B598ED5B12807A31C4A45
:104B0000EA6092630062A5320FA28397E3D93084F2
:104B1000591A6669322C591266619AE558920C430B
:104B2000282559A62559A264519266519266E52C12
:104B30004AB2244BB2A21A62D22B0FA28397E3D9B6
:104B4000306875AC3E2C39960D4398A561520DA581
:104B500034D3D244C98621CC72AC8ED591DA304898
:104B6000390A63092A0FA28397E6489CC779343C27
:104B700028799664C5344794E124669112666916D3
:104B8000A6A112D7D3244CC22CCCD404636E32100D
:104B9000A283970D8398C5611627C32087D93088D3
:104BA000919627B55C1A6ECD5A35C98641892A6916
:104BB0001825699844699494D22CC9862101638987
:104BC0002A0FA28317E7711E0F5A1C0ECB3084598F
:104BD0001A26C93084529A69C3902859548CF368B4
:104BE000B8C5799C26713D0463A52C0FA28317E6F6
:104BF000509A23D1308839382C611A4671321CB250
:104C00003447C45C195EC22CCDC2348CE2544D32A0
:104C1000498CE40463CF2F0FA28317666998A5D14E
:104C2000700BB36898B234C7B361089352516AD31A
:104C3000A28A920D439845C52C2A66514B360C59D1
:104C400098260063D22B0FA2839543613E64D1A0C6
:104C5000C7E920E6C97090E23C89925C919253D6F4
:104C600094352DC916654D59A5349CB23C01641C80
:104C70002E0FA2831726791625621615B3A8322C9B
:104C80004A226651318B8A49320CA11A6BC3902893
:104C9000619656E27A9A84499885992A6444320F3B
:104CA000A28397E3D13088599866C3342C619A0D5A
:104CB0006B166EC930A87AA80CC99028611285516C
:104CC000520AB32849A3240A9352524CC24C647826
:104CD0002A0FA283D79C9593E198D5861D8D8621B6
:104CE0008DD2CA30A84A1A4AC31029698E24C3B18A
:104CF0009267C5244AC3281764AD300FA283150FED
:104D00006134E85954ACD4066518B430A966513101
:104D1000D1256918A22D2A6651311B86308B8A59FC
:104D2000D4920D4316A6110064CE2F0FA283550C0A
:104D300087418AA36C5886454BD22CC986242C25E2
:104D400059920D49A2A9613E0C399A43C341877219
:104D50006478C8911CD60165362B0EA68317E648E9
:104D60009846611A6571940D83548C2AB5A856AA89
:104D7000951231C99430C9A2340F9338AB46699863
:104D8000E40165702C0FA28399969A935A8EA4C35E
:104D90004392554A59D4922559250AE3241A862C60
:104DA00009B3B0A31426A99A844A5611933465878F
:104DB000230FA2839D53723C1FBEE5715ECD9134DB
:104DC00087B21C4C723887931CCC72288D754907AA
:104DD0000565B02E0FA283975372241A8664C8C14A
:104DE0003C8B72A4960E83328CA5388CB26148A29B
:104DF000388CC2A4548B2A51AD31C9AA5918016507
:104E0000B9220FA2839D53723C1FBEE6788EE7F84D
:104E100030E4489A23698EA4799CC7F5B492E629B8
:104E20000065E025EEA183351C72248773388773F3
:104E3000647848A31C8B722CCAA12C87B21C094B26
:104E40006998E4C30E0365F6290EA6830FE6703455
:104E5000C85116475932DCE2288BA3418EB2288B09
:104E6000B252AD548BA3418EB23807931CCD00666D
:104E70002F230FA283379CF3388F87731EE7F170BF
:104E8000270EDF73AC8E65C39AE55012E54896E4B1
:104E9000E970663E21CFE183379CF3388F87731E1C
:104EA000E7F17047B238EB9415932C4A932CC991D3
:104EB0002C1D3E667A260EA28395C3833428519812
:104EC00085B5E19255B252160D4A4E19AE799AA7A0
:104ED000C3354FF374B8E611006709240FA2839D10
:104EE000E339327CCDF11C1E063D8EE534190631C6
:104EF0008AB3723E0C7A9CC77998E46908672C23C0
:104F00000FA2839FE3399EE339323CE43B98D4B14E
:104F1000A40EB567D5B0160D4394C4F51CCFF11C93
:104F2000673A290FA28397E3D92067E5AC362C595D
:104F30009C55B5EA9485495B98B495B27256CA9A65
:104F4000B2288CB228DD921C026765230FA2839FD2
:104F5000E3399E23C3438EE4587B94E55171F8BC3A
:104F600083491D6AD632494DF51CCF01677F2F0F4B
:104F7000A2839723693E66439EE5C39263D930645A
:104F80005A926553924549B728694AA25A94A4593E
:104F9000392B47599246B53089D200679C20EFA142
:104FA00083379CB372561ECE59392B0FE7AC8EE572
:104FB000C3D7A40E356B99A4A67A0E6807280FA252
:104FC0008397E3D93084399E83C38E46C3498ED7F5
:104FD0004A5392254D95A8168551D61266E53C4C4C
:104FE000F23405680F280FA28397E3599886591A5F
:104FF00046D9B0A3D170D2E11D4CEA58521986248B
:10500000CAF11CCFF11C8F865B0E026837250FA2F8
:1050100083570D7B4B737050865B1CCBF1340C5166
:10502000524C93388CA2E116E7711EE7711E87007F
:10503000683C2E0FA28317E6509843E1A0666134C6
:10504000285A9C4449ACE65B92266D5A12C553928D
:105050000C6B16A6599866619A0D6B164600684C43
:10506000260FA2839FE3393E0C399263C321CD9171
:105070007438A439920E871CCA87AF491D6AD6328C
:10508000494DF51C68632C0EA28317D7A25A984489
:10509000599844C31025C538958641DA91EE491DCB
:1050A00092B261C87228CBA12C87B26818B41C0ACE
:1050B00069FD320FA28317467118C5C970C8C2288E
:1050C0001B946110A3244A326918B4A59444493250
:1050D0009C921C8CB261CDC2341BD62C4CB361CDDA
:1050E000C2086B4C340FA2838F85C320E5587548E6
:1050F000A2618992284C86A498A3D9306839148675
:10510000431296922CC9A2244BB221C9921C89B297
:105110003489B2384A036B7B28EEA183F1410B73CB
:1051200024CC91B03624594B1466493189123193FD
:10513000722CCAA12CAC8559588A072547016BD21D
:10514000250FA2839F43C34187726CB86339323CF9
:10515000E4D4E11C8571561B3E65611A66E9F08E48
:10516000E6A8086C602DEFE1830FE5718E4475248D
:10517000AA4869A46461226549A444E91055A3C6FC
:105180002C2A6D5122665118657994E551380C022C
:105190006CA120EFA183150E7256CE9AB3B04B7955
:1051A000D3E16818C22C8DC66E6925AE878ABE0E03
:1051B0006CD5270FA2830FE5718EA4399216875301
:1051C0001EE73992E6C8F014A76B8E84399485697E
:1051D0001487C97088F3046CE825EFE1838FE448F5
:1051E0009C23399E0C971C89F338CF913447A261D8
:1051F000D0E274CEE33CCEE33C190E026D4F300E8C
:10520000A2835D494B611A25C310E548948851A5D6
:10521000984449531225594B1466C990255112657B
:10522000499444B5521266919EE468026D6A2C0F4F
:10523000A2838FE4489C23D130A4511AA5B57018DD
:10524000B22849E3242D0D431A55B728EB126661A5
:105250009A255998A9728E006D882C0DA2830FA5EE
:105260005954AB4459A51D09C36148A2240D933478
:105270008B86218BD2214BA36C18A22C8DB234CA01
:105280002A7198006DD82E0EA2839F23610E65C3EC
:105290009045B198A4493A4449988459584B86217D
:1052A00089D270C892522D29D506A98E457992A32C
:1052B00011006E38300FA2831DA6611667E56448A1
:1052C00086354BC3280E97218C92B0946461966406
:1052D000D196248394255918D5C2A816269152CD6B
:1052E00033006E9030EFA183150D872C09F3244B0A
:1052F000C36418A22C49A32C198630A98649320C04
:1053000059944495298CA34A3189DA925A494C72AE
:1053100038056ED12DEFA183950D431AA5A521AABD
:1053200046B5683828510E65D130A4511A66C310AD
:105330006D69980D4398A5619686592547C20C70F2
:105340006B250FA2839FE3399E63C5340BD3AC1A40
:10535000467198236192A3490E66395687D2BC9A4A
:1053600043910E0A706F260FA28397E3391E0DB783
:10537000384D8A69A256E2308AF3388FF3B892C664
:10538000519866611A27618EA40070B9250EA28318
:105390009DC3399CC3C320E7700E0D873047C21CE4
:1053A0000973241C0E3931AA35654918653A1A71FA
:1053B00036280FA28317E771920E5994354BC325F7
:1053C0004AB23089B2244EB224CFAA611656A33015
:1053D000CF49B5BE8459057247220DA6838FC46993
:1053E0009CC6699CC6C341CAD11CCDD16150E3346F
:1053F0004EE3300FF32C473200725921EEA5833370
:10540000BC43399CA7791A97878738C9B12887B2D6
:105410001C09F334957330C9D11872692C0EA2831C
:1054200017E6481827619C84C332287DAA24529A23
:10543000D4C228C9A6CAA045955216656956CD8A18
:10544000B55212E6110072792C0FA28317E7719AF8
:10545000C469920D4334886912875134DC72249DEB
:10546000A3211B06A58EA4619696D21C49E324CDE8
:10547000330073A926CFA18371198630C7733CC747
:10548000A3E13248E5308AC3280EA3388CE2258B8D
:1054900086308B92305D730873B02AEFA1833F0C86
:1054A000C9B0A46196865954CCA262169506252AE5
:1054B0006651314B1AD3240EA378AA8D599484A532
:1054C000341E740627CFE1833F0CC9B044C52C2A93
:1054D00066C3106651318B4A83320C619CC77936A2
:1054E0000C619C8FE19E86C301751F20EFE1839FB5
:1054F0006375AC8ED5A1E12DCC91348F733C87863A
:10550000830EE5788EE7783E7C752824EDA18335FF
:105510001CA4B01496C2D27090C252580A4BC34118
:105520000A4B6129ACA4619246898E25007535230A
:105530000DAA839BA3399A0F07292C85A5B0341C8B
:10554000A4B01496C2D27090C24A1AA7713C0C0142
:1055500075C52F0FA2838FE4941C19DE7230CAD157
:1055600024194E499A2369AE0CA7A456899228891A
:10557000C2A49664919864511E6569528C2300768A
:105580007B2AEFE1838FE4C8A044399494B2288B3E
:10559000D2244BF2344F0625CDA148192E5A1EE7CE
:1055A000F1704F73288B878704767E26EFA183F1F5
:1055B0007B0EE7700E0E073187C21C0A73281C0E83
:1055C000620E853914E6509843E170107328027614
:1055D00084260DA68395C669391CA6614C42310903
:1055E000AD62940D4316895924C6622CC6C3108B34
:1055F000599283110076D827EFE1839DC3393A9CF5
:10560000B3721865C3B73C8EC2344C8A39120F0787
:1056100031CAA230CAA230CAA268F800770B280F9C
:10562000A2838F0CDA30E4780E0D071DC991E16B6F
:105630000EE7F0704DE2301A06AD9C0F831EE7C3F3
:10564000A0C71900771F220FA2839FE339323CE4E1
:10565000488E0DE73C1ECE793C9CF37838E7D9F0B4
:1056600031CDAB3914017740280FA28399E650164B
:105670000F0F399243C341477264F89AC3C320CBDA
:1056800069320C9A14E7C3A0C7F930E8710677EDC8
:10569000270FA28395E3E13048438E25391885C34F
:1056A000D8976148C2E230E678584BC2AC9445596D
:1056B0001D4B873B0178012DEFA1833F4CC39CE636
:1056C000481A66619A8543946552340C8994234A3A
:1056D0009423511D892AC3120D3912D5912847EA06
:1056E0007004786C2EEFA1833F3C88799C67C3904F
:1056F00085516D48A292940C43242551A59444B53C
:105700002819862C4AA278889238CAF234D121719D
:10571000789F320FA2838F44399444D9A094D268E1
:10572000384459128595281C9264C8A424872AC33A
:105730002015E368382851B60E51522C95B54C8788
:10574000520078C1320FA2831FE6586908A3341AA9
:105750000E51584BC36C0A33254AA2244A4A495475
:1057600049A62DC9C22C89C2700A2BA5248A876438
:10577000C8A13001793A1BEFA183351C74FE3C7C33
:10578000CFF11C6BCEC2D6288DE56A92C33902795F
:105790003E240FA2839597F3381CD41C49F3388F0D
:1057A00086D35A299692308FF3388FF3384F864339
:1057B00096830079BB2A0FA2839D53F2E13B31C946
:1057C00092389AE2244BE2E18EE5C8F0108571949C
:1057D0003545C310D5C2A80E25518E450079CD1F81
:1057E0000EA28399C66336C4DD868724AA954A5AD9
:1057F000549A5A5A8621E9144971FF0679FB270FFA
:10580000A28399E66338A483D82D89A26194CB6AD8
:10581000144E52981407A52D9432250A73358F53D0
:105820003D93017A0B2CEFA183A90C433264699854
:10583000A5619626C3320C610EEFA8920C43941416
:10584000D3240EA36C18C2388FF3384F8643007AE6
:10585000972B0FA2839D5372647850A234938A4988
:105860009C83C341CCD2301BA230CAA230690BBB8F
:10587000255918C5E170107328027B142A0FA283E2
:1058800097E6489A0FCBB04459948549986383387A
:10589000EC788E0FE3B0E3393E0CD130C4799CC76D
:1058A00039320C017B52320FA28397E6489A0FCB14
:1058B0003025591466491825C341CCA130198624D6
:1058C000CCA1301AA430CAA230CAA2301AA43087A0
:1058D000C23C097324037B7E2AEFE18397E6489A52
:1058E0000FCB30255914664918A5490E663994C660
:1058F000CAA0483A288771568FEA48180F0F090046
:105900007B80320FA28315E7C3322C5116656112DA
:10591000A6392519863087C26890C2288BC2288B89
:10592000C26890C2288BC2288BC26890C21C0A73BE
:1059300044027B97280FA28315E783342C51166508
:105940003969388839140E073187C2E120E65038AA
:105950001CE4341C3EA6795C0F017BB12F0FA2839F
:1059600097E6489A0FCB3025591466491865399E39
:105970000DD3B084691686DA304E61963466496577
:10598000986A619215D36C58007C982D0FA28317EA
:10599000E7711825619A14D3441DB4381CC6588E7B
:1059A000A7618892D628694DA22C0DB334CCD23091
:1059B0001B86304B13007CFB210DA6833F48C38E12
:1059C000E560DA3A0C39986362A827C3439C6651B4
:1059D000356BAC64495A077D20270FA2839F43C3D0
:1059E0004187726CB863F9F03987C37C1872540729
:1059F000C57438E8509866511C2559588D007D2291
:105A0000280FA2839FE339341C7428C7736478502D
:105A1000C25C2C85C390A33A28A6C34187C2348BAD
:105A2000E228C9C26A047EBF2E0FA2839726711A8C
:105A300085711E65C9942543388839922643940D93
:105A40006A9E25C3166539A2C359B625D190664909
:105A500051D5F1007ECF27EFE18397E3D930643948
:105A60001446699885DA20466958CBE4248787650F
:105A700018A21CC9F17C0CF7341C0E7EDC2B0FA283
:105A80008317E6509823E920B64589960D5392A7CF
:105A9000799AA435695062254B861D0A53298CC614
:105AA0005A3AEC5018017EDD2BEFE18317E650984F
:105AB00023E920B64549980D49320C6116D5C2A894
:105AC00035AA0CD23044698EE798140F619CC4C388
:105AD000107EDF2B0FA28397E6485C8FB3E112851F
:105AE000E9A055B334CB864B1C45C316857194830E
:105AF000512C65D110665112A66B0E017F162D0E2A
:105B0000A28317E6481A67C32065711225F1B00C0D
:105B10008316E5509623E1F090281D95D66418B2BF
:105B2000A56588929E2A591E0A7F512CEDA583F106
:105B300041077550AC285112255212258916465A34
:105B400018494994245212258912255132A63AA89F
:105B500043898E2500800C23EDA583F121CED11C35
:105B6000CC91E120B5456D515BD416B5456D515BC7
:105B7000D416E54994231100803322EFA183333CEE
:105B800084799CC7C3398FF37838E7711EC7839631
:105B90000C4A36C8399EE3399E01804A3EEFA18304
:105BA00071CAA3441B9228899228199228899228A5
:105BB0008992288992288992218992288992288914
:105BC000922849942889862451922189928A944561
:105BD0007916E5519627610680542C0FA2838F64B5
:105BE000D1B04559142661948343340C51B594A621
:105BF000435A4A864B9496B4241CC22493B27256DC
:105C00008ED24A1E80FD300FA28397E651560AA31A
:105C1000D230283B96E478980C539884D9A08439E4
:105C2000344C591446B5301A87290EA3308992286E
:105C30004CB270108111320FA2830FC5435A4A4BE8
:105C4000C341897270C8C1288BC228899252258BA2
:105C5000A221C9A2962829554A495489A34A1C550C
:105C600086418974240181EA1509AE839997874397
:105C70006E1F0EBA3E1C74FB70D0038282270FA2E7
:105C80008399E6481A0E1FD31C4973F2F08EA4398B
:105C900092E6489A23698E44490E653996E3399E07
:105CA000230082F9220FA28399E6481A0E1FD39C83
:105CB0003C3CE4488EB547591ED5C17CF89EE3397B
:105CC0009EE3390083DC240FA28399E6481A0E1F55
:105CD000D39C92838338EC587B9A8339323CC449F5
:105CE0001D6AD632494DF51C84DD29EFE18399E622
:105CF000481A0E1FD31CAA23511D89A2618B2A7139
:105D0000946439793888511685511685511645C3E2
:105D10000785CF300FA2839BA5C3D72CCAD1281CDF
:105D20005ECA69920C49BA948AC99044C9904449A0
:105D30002D4986A496B495925A541A92A63853E2E5
:105D400034884C250FA28399E3D13084399CC35108
:105D50008EE770349CE43489C328CEE33CCEE33C28
:105D6000CEC3244F53008868260FA2839FE33932A5
:105D70003CE4488EE7D070D0A11CCF87AF490E66B7
:105D80005531499334946A72128B3A04898122ED19
:105D9000A583F121CC72244B8783548BDAA2683817
:105DA000C8F9F01096C378CAB11D92B63D0189C6F4
:105DB0002B0FA2839553B26108B33419A4B4D498BD
:105DC00045C52CAA4D5D9A2A51D2639AC4611487A5
:105DD000519C95B2288CB2241E89C8260DA68399A1
:105DE000A5519646D9A0446D5112A639361CF33000
:105DF0002B66C5AC1825519EE45031D2C27910896A
:105E0000E32F0FA28397E3E1B00D61944561D4982D
:105E1000B40C4A1626C5342925E9200D5AD29426F9
:105E2000C5745086214A8AA524EC168A190089E691
:105E3000300FA28395C7793AA4A5681892288B4A97
:105E40008312B534B53495066518A2A4A9A5980E99
:105E5000629225C5A8920C87244B624D87008BA1C6
:105E6000290FA2830FE5718EA43992E6788EA7439D
:105E7000321CB23447D21C497324CD9134476A395D
:105E800022E6489AE329008BB024CFE1839553B2F0
:105E900061CD911CCFF168C891341BD62C4CB31C3A
:105EA000AB63752C2967529C85C3108BBA29EFE12F
:105EB000830FE5718E84491E263998E5501A0D49E5
:105EC000AE3567519E253992E9509663493594D293
:105ED000301C16008BBE27EFA183150E7256CEEA3A
:105EE000581D4A8721C9D16818D22C4CB37218C5E5
:105EF0004994E4628E84498E9975018BC429EFA17F
:105F000083950D435A47D21C8CEA50124543969410
:105F1000D31C49864396E6489A23B51C117324CDB9
:105F2000F11C4F018BDD290FA2838F86F910664388
:105F30001EE7788E0D0F711EE7719E0D4398A561C7
:105F40009686493594D2301B861C4913008BF42762
:105F50000FA2839D86AD59B98E0D438EA4D110A595
:105F6000A5B4340C6998E4619227A55CAA95B26A3D
:105F70003A8439068C37230FA28399E6485C0B5B81
:105F8000A330C9C12C87D2589774501BCE799CC7B7
:105F9000799CC7C339CF008D2D2E0EA2838FC48369
:105FA0001467519C9486A56BD235A94859D256697D
:105FB0000A93A6244ABA25593628511227513DC9B9
:105FC000C2A48E45008D34300FA2838FA5839866BE
:105FD000619A14D3A438288D69524C93629A5486DE
:105FE000214A5AA3A435CCD22C89D22C4AD2284B90
:105FF000862189D3048D772A0FA28399E3399E0DD8
:10600000DAB0C6799C47C3900C72564CB21CA9E515
:1060100048B28459928559120E52A283D1F04E8F04
:106020006C280FA28395C7799C87C3320C518EA42C
:10603000495A8A866F3912E650360CE19E0C615639
:106040004993B85ECE33008F6F2B0FA28397E6483B
:106050009A23693A0CD1A0A56196644DADC39623ED
:10606000698E84493E25D92026619495B372945651
:10607000F2008F7D2A0FA28399E6489A64C31055D7
:106080008BC3B7388FA36418A45A1EB526D93044E1
:10609000495C1FB2685893624DCCD2008F912E0F8D
:1060A000A28395E3E130360D4B98A5C396E4609446
:1060B0000C1F9230CD86350BD36598862CCC922C54
:1060C0001AB46490D21C497324028FC723EFE18372
:1060D0000FA63912E771321C7230C7B3210AE3AC44
:1060E0009C95F3388FD3246EC9C16C38048FD42BA0
:1060F000EFE1838F86F91046438E44399EE3C3A0B7
:106100000C511C464996469538CAF2A8122751965A
:1061100026D52CC9C16C38048FD826CFE183950DC4
:106120008318E7710EE7783A844A9C25511AD5C244
:10613000242BA63992E6489A2739980D87008FD9E3
:1061400028EFE1838FE4489C23698E24C31DCDA1F1
:10615000301BB2280F933CCD9130C9B3729456E2F4
:1061600030C9C16C38048FDB29EFE1838F44692982
:106170000EA3381A061DAA83513684519C0C872C15
:106180008CE2308AB372568EC234C9C16C38049026
:10619000012A10A2839D476951CCE23CC7863B98F7
:1061A0000E718EC439920C072DCE9134C9C32CCEFA
:1061B000D230A947590EA9C32190022AEFE1830FDB
:1061C0000D6136E4489A23698E0D871C4A8734474F
:1061D000A26148A3B49496D2D230A4511A26399819
:1061E0000D8700905328EFE1839D86B538C793E172
:1061F0000EE5E8304443949686218DD2D230A451E6
:106200005A1A86344AC32407B3E11090A328EEA19A
:1062100083334C8316D54A8D51D3302569D4183534
:106220000D5356AA956A5116295929C9A2240A6BF9
:10623000391C0290AE2F0DA68397A3E1A085D9301B
:1062400028511255A224AA945AA224AA44C930243F
:106250009954C9A44A26559452A5340C4998263914
:106260001A0290E8300FA2839753D241190625CB2A
:10627000B1280BA3629425D170907230CAC12C1A38
:10628000A62C0AA32C0A23250BA3241CA6388C7247
:106290003C0490FD300FA28399E3593228C3520B7E
:1062A000A3D6248B92E1A0C46914C651364C59225E
:1062B0004699124659344C4A164649588A87290E3F
:1062C000A310914D30EFA18371C8B1241BC4248F5A
:1062D00086218D92D628698D9296414A92258BC44B
:1062E000244E93781892384D52354987411A863496
:1062F00047009177370FA2830F66C31025691226D6
:1063000069120ECA3044499674CA92C62C6919069D
:1063100025D9113147D268508621CA9234CA9234A5
:10632000CA92618806258DB20491CC1DCFE18335D8
:106330001CC43E0E07B18FC34187723C8786830E13
:10634000E5788EE7C30794AE2AEFE18397E3D9306F
:106350000E5914C651964795218BD2529A0DD330BF
:10636000656998A5619686599A4459AA55A3E10092
:1063700094FE2BEFE18395236916A6539686C9B048
:10638000E4483AA44994444B1456868314F6380CD6
:1063900052D81285A1946461940D0395012E0FA229
:1063A0008317E759541BA224CAD2A496236132242E
:1063B000C310666998459561898A5954CCA26216C2
:1063C00015932C89B56A96E605952E32EFE18395F3
:1063D00023698EA48B3268619644E93028431226E3
:1063E0006DD1A0455B3648C9A045499646C930489D
:1063F000599826C554A94349360C0195ED260DA69A
:106400008393C3C97047E5500E95E12287AA2826D9
:10641000A1168552162A612826A19AEA50A263097C
:106420000096322E0EA6838FA483580B4BC970881A
:10643000B23809E3288BA36C58B2284CB2284CB26E
:10644000284C942C4C6A699256C22C89B23403961B
:1064500044330EA6839F458394455994458D51CB73
:1064600030249118454A18B544B5244AA22C899283
:10647000284BC24889C228C9C2280DA3344AA23475
:10648000CB0096642CEEA58331846914A6499884C8
:106490004956D3D228A90CCA14A6519846C9302807
:1064A0004A982659520BA3B69634C992380696F6E6
:1064B0002A0FA283351C7428478607258DA52559E8
:1064C0007224C7966487921C334BA1A4A6DA30E8E5
:1064D000780E4939AA53520097622CEFA183F173C9
:1064E0008EE7700E0E0731CAA230CAA2301AA4304D
:1064F000CAA230CAA2301AA430CAA230CAA27038C6
:106500008839140197F3210FA2839D53726838E8EC
:10651000F43487B274F84E1CCE799CC7C3398FF31C
:106520007838E71900987522EDA583F121CDC11CBB
:106530001B8E799815B36256CC8A59314AA23CCA4F
:10654000913095231D4A0098912D0FA28397E3D98E
:106550003028E534D9E2241B8628C9D26418A43A2D
:106560001215B3A8A5A9A5A9A55B1266499E15B5E4
:106570003411F3009F202B0DAA83A723DB20E550C5
:10658000342883944375281A0E3AA594442D511249
:1065900085A5244AA2962849C48A2591864C0D00D7
:1065A00000000000752A00087D2A0008BF250008A9
:1065B0001815AF19FF1815AE19FF1815A115C81930
:1065C000FF1815A015C019FF1815A115C019FF183F
:1065D00015A015C819FF1815AE15D5168015A816E3
:1065E0003F15D316001540158D16141520160015ED
:1065F000A115C815DA1612158116CF15D916F11581
:10660000DB1640152E15A415A619FF1815AE15D5C5
:10661000168015A8163F15D316001540158D1614B3
:106620001520160015A115C815DA1612158116EFDA
:1066300015D916A115DB1600152E15A415A619FFE0
:106640001815AE15D5168015A8163F15D3160015CA
:1066500040158D16141520160015A115C815DA164B
:1066600002158116CF15D916F115DB1640152E151A
:10667000A415A619FF1815AE15A415D5165015A802
:10668000163F15D31600154015AD168B15D91622D9
:1066900015DB16351532158116FF15A615DA1612FB
:1066A00019FF1815AE15D5168015A8163F15D31667
:1066B000001540158D16141520160015A115C015CE
:1066C000DA1612158116CF15D916F115DB164015FD
:1066D0002E15A415A619FF000001140A64643232B5
:1066E00000127A0000042896100800008000400084
:1066F0000001140A6464323200093D000004289647
:10670000100802028000400000000400000400485D
:106710000100000000000400000400480200000026
:106720000000040000040048040001000000040010
:10673000000400480800010058670008000000201D
:1067400050000000E4140008A86700085000002072
:10675000A80B0000F4140008000000000000000076
:1067600000000000000000000A000000692000088E
:10677000000000001C0000201C000020206CFBFF1B
:106780002800002028000020000000000000000079
:10679000006CDC02000000000000000001020304A5
:0867A0000607080900000000D3
:04000005080000C12E
:00000001FF
